{
  "contractName": "HealthDataSharing",
  "abi": [
    {
      "anonymous": false,
      "inputs": [
        {
          "indexed": true,
          "internalType": "address",
          "name": "patient",
          "type": "address"
        },
        {
          "indexed": true,
          "internalType": "address",
          "name": "entity",
          "type": "address"
        }
      ],
      "name": "AccessGranted",
      "type": "event"
    },
    {
      "anonymous": false,
      "inputs": [
        {
          "indexed": true,
          "internalType": "address",
          "name": "patient",
          "type": "address"
        },
        {
          "indexed": true,
          "internalType": "address",
          "name": "entity",
          "type": "address"
        }
      ],
      "name": "AccessRevoked",
      "type": "event"
    },
    {
      "anonymous": false,
      "inputs": [
        {
          "indexed": true,
          "internalType": "address",
          "name": "patient",
          "type": "address"
        },
        {
          "indexed": false,
          "internalType": "string",
          "name": "ipfsHash",
          "type": "string"
        }
      ],
      "name": "DataStored",
      "type": "event"
    },
    {
      "inputs": [
        {
          "internalType": "address",
          "name": "",
          "type": "address"
        },
        {
          "internalType": "address",
          "name": "",
          "type": "address"
        }
      ],
      "name": "accessPermissions",
      "outputs": [
        {
          "internalType": "bool",
          "name": "",
          "type": "bool"
        }
      ],
      "stateMutability": "view",
      "type": "function",
      "constant": true
    },
    {
      "inputs": [
        {
          "internalType": "string",
          "name": "_ipfsHash",
          "type": "string"
        }
      ],
      "name": "storeData",
      "outputs": [],
      "stateMutability": "nonpayable",
      "type": "function"
    },
    {
      "inputs": [
        {
          "internalType": "address",
          "name": "_entity",
          "type": "address"
        }
      ],
      "name": "grantAccess",
      "outputs": [],
      "stateMutability": "nonpayable",
      "type": "function"
    },
    {
      "inputs": [
        {
          "internalType": "address",
          "name": "_entity",
          "type": "address"
        }
      ],
      "name": "revokeAccess",
      "outputs": [],
      "stateMutability": "nonpayable",
      "type": "function"
    },
    {
      "inputs": [
        {
          "internalType": "address",
          "name": "_patient",
          "type": "address"
        }
      ],
      "name": "retrieveData",
      "outputs": [
        {
          "internalType": "string",
          "name": "",
          "type": "string"
        }
      ],
      "stateMutability": "view",
      "type": "function",
      "constant": true
    },
    {
      "inputs": [
        {
          "internalType": "address",
          "name": "_patient",
          "type": "address"
        }
      ],
      "name": "getAuthorizedEntities",
      "outputs": [
        {
          "internalType": "address[]",
          "name": "",
          "type": "address[]"
        }
      ],
      "stateMutability": "view",
      "type": "function",
      "constant": true
    }
  ],
  "bytecode": "0x608060405234801561001057600080fd5b5061143c806100206000396000f3fe608060405234801561001057600080fd5b50600436106100625760003560e01c80630ae5e739146100675780632a77d7071461008357806364b3b525146100b357806385e68531146100e3578063cca6f538146100ff578063fb218f5f1461012f575b600080fd5b610081600480360381019061007c9190610b03565b61014b565b005b61009d60048036038101906100989190610b03565b6103bb565b6040516100aa9190610bc0565b60405180910390f35b6100cd60048036038101906100c89190610be2565b610557565b6040516100da9190610c3d565b60405180910390f35b6100fd60048036038101906100f89190610b03565b610586565b005b61011960048036038101906101149190610b03565b6107af565b6040516101269190610d16565b60405180910390f35b61014960048036038101906101449190610e6d565b61097d565b005b3273ffffffffffffffffffffffffffffffffffffffff163373ffffffffffffffffffffffffffffffffffffffff16146101b9576040517f08c379a00000000000000000000000000000000000000000000000000000000081526004016101b090610f28565b60405180910390fd5b600073ffffffffffffffffffffffffffffffffffffffff168173ffffffffffffffffffffffffffffffffffffffff1603610228576040517f08c379a000000000000000000000000000000000000000000000000000000000815260040161021f90610f94565b60405180910390fd5b60018060003373ffffffffffffffffffffffffffffffffffffffff1673ffffffffffffffffffffffffffffffffffffffff16815260200190815260200160002060008373ffffffffffffffffffffffffffffffffffffffff1673ffffffffffffffffffffffffffffffffffffffff16815260200190815260200160002060006101000a81548160ff0219169083151502179055506000803373ffffffffffffffffffffffffffffffffffffffff1673ffffffffffffffffffffffffffffffffffffffff168152602001908152602001600020600101819080600181540180825580915050600190039060005260206000200160009091909190916101000a81548173ffffffffffffffffffffffffffffffffffffffff021916908373ffffffffffffffffffffffffffffffffffffffff1602179055508073ffffffffffffffffffffffffffffffffffffffff163373ffffffffffffffffffffffffffffffffffffffff167f9f520b3bfc56d06f7065d10b4683b3f57ac8895d5026cd176dee95ce1454cb8d60405160405180910390a350565b6060600160008373ffffffffffffffffffffffffffffffffffffffff1673ffffffffffffffffffffffffffffffffffffffff16815260200190815260200160002060003373ffffffffffffffffffffffffffffffffffffffff1673ffffffffffffffffffffffffffffffffffffffff16815260200190815260200160002060009054906101000a900460ff16610486576040517f08c379a000000000000000000000000000000000000000000000000000000000815260040161047d90611026565b60405180910390fd5b6000808373ffffffffffffffffffffffffffffffffffffffff1673ffffffffffffffffffffffffffffffffffffffff16815260200190815260200160002060000180546104d290611075565b80601f01602080910402602001604051908101604052809291908181526020018280546104fe90611075565b801561054b5780601f106105205761010080835404028352916020019161054b565b820191906000526020600020905b81548152906001019060200180831161052e57829003601f168201915b50505050509050919050565b60016020528160005260406000206020528060005260406000206000915091509054906101000a900460ff1681565b3273ffffffffffffffffffffffffffffffffffffffff163373ffffffffffffffffffffffffffffffffffffffff16146105f4576040517f08c379a00000000000000000000000000000000000000000000000000000000081526004016105eb90610f28565b60405180910390fd5b600160003373ffffffffffffffffffffffffffffffffffffffff1673ffffffffffffffffffffffffffffffffffffffff16815260200190815260200160002060008273ffffffffffffffffffffffffffffffffffffffff1673ffffffffffffffffffffffffffffffffffffffff16815260200190815260200160002060009054906101000a900460ff166106bd576040517f08c379a00000000000000000000000000000000000000000000000000000000081526004016106b4906110f2565b60405180910390fd5b6000600160003373ffffffffffffffffffffffffffffffffffffffff1673ffffffffffffffffffffffffffffffffffffffff16815260200190815260200160002060008373ffffffffffffffffffffffffffffffffffffffff1673ffffffffffffffffffffffffffffffffffffffff16815260200190815260200160002060006101000a81548160ff0219169083151502179055508073ffffffffffffffffffffffffffffffffffffffff163373ffffffffffffffffffffffffffffffffffffffff167f825c8be24eb0df19500f63e86c29e7d0d951e73056b889b891d85e40938d9b6e60405160405180910390a350565b60608173ffffffffffffffffffffffffffffffffffffffff163373ffffffffffffffffffffffffffffffffffffffff1614806108715750600160008373ffffffffffffffffffffffffffffffffffffffff1673ffffffffffffffffffffffffffffffffffffffff16815260200190815260200160002060003373ffffffffffffffffffffffffffffffffffffffff1673ffffffffffffffffffffffffffffffffffffffff16815260200190815260200160002060009054906101000a900460ff165b6108b0576040517f08c379a00000000000000000000000000000000000000000000000000000000081526004016108a79061115e565b60405180910390fd5b6000808373ffffffffffffffffffffffffffffffffffffffff1673ffffffffffffffffffffffffffffffffffffffff16815260200190815260200160002060010180548060200260200160405190810160405280929190818152602001828054801561097157602002820191906000526020600020905b8160009054906101000a900473ffffffffffffffffffffffffffffffffffffffff1673ffffffffffffffffffffffffffffffffffffffff1681526020019060010190808311610927575b50505050509050919050565b3273ffffffffffffffffffffffffffffffffffffffff163373ffffffffffffffffffffffffffffffffffffffff16146109eb576040517f08c379a00000000000000000000000000000000000000000000000000000000081526004016109e290610f28565b60405180910390fd5b60008060003373ffffffffffffffffffffffffffffffffffffffff1673ffffffffffffffffffffffffffffffffffffffff168152602001908152602001600020905081816000019081610a3e9190611334565b503373ffffffffffffffffffffffffffffffffffffffff167f4b33dafb50dac5530c30aca4e4069fd67a18220888b874b8519558d1769d49a183604051610a859190610bc0565b60405180910390a25050565b6000604051905090565b600080fd5b600080fd5b600073ffffffffffffffffffffffffffffffffffffffff82169050919050565b6000610ad082610aa5565b9050919050565b610ae081610ac5565b8114610aeb57600080fd5b50565b600081359050610afd81610ad7565b92915050565b600060208284031215610b1957610b18610a9b565b5b6000610b2784828501610aee565b91505092915050565b600081519050919050565b600082825260208201905092915050565b60005b83811015610b6a578082015181840152602081019050610b4f565b60008484015250505050565b6000601f19601f8301169050919050565b6000610b9282610b30565b610b9c8185610b3b565b9350610bac818560208601610b4c565b610bb581610b76565b840191505092915050565b60006020820190508181036000830152610bda8184610b87565b905092915050565b60008060408385031215610bf957610bf8610a9b565b5b6000610c0785828601610aee565b9250506020610c1885828601610aee565b9150509250929050565b60008115159050919050565b610c3781610c22565b82525050565b6000602082019050610c526000830184610c2e565b92915050565b600081519050919050565b600082825260208201905092915050565b6000819050602082019050919050565b610c8d81610ac5565b82525050565b6000610c9f8383610c84565b60208301905092915050565b6000602082019050919050565b6000610cc382610c58565b610ccd8185610c63565b9350610cd883610c74565b8060005b83811015610d09578151610cf08882610c93565b9750610cfb83610cab565b925050600181019050610cdc565b5085935050505092915050565b60006020820190508181036000830152610d308184610cb8565b905092915050565b600080fd5b600080fd5b7f4e487b7100000000000000000000000000000000000000000000000000000000600052604160045260246000fd5b610d7a82610b76565b810181811067ffffffffffffffff82111715610d9957610d98610d42565b5b80604052505050565b6000610dac610a91565b9050610db88282610d71565b919050565b600067ffffffffffffffff821115610dd857610dd7610d42565b5b610de182610b76565b9050602081019050919050565b82818337600083830152505050565b6000610e10610e0b84610dbd565b610da2565b905082815260208101848484011115610e2c57610e2b610d3d565b5b610e37848285610dee565b509392505050565b600082601f830112610e5457610e53610d38565b5b8135610e64848260208601610dfd565b91505092915050565b600060208284031215610e8357610e82610a9b565b5b600082013567ffffffffffffffff811115610ea157610ea0610aa0565b5b610ead84828501610e3f565b91505092915050565b7f4f6e6c79207468652070617469656e742063616e206d6f64696679207065726d60008201527f697373696f6e732e000000000000000000000000000000000000000000000000602082015250565b6000610f12602883610b3b565b9150610f1d82610eb6565b604082019050919050565b60006020820190508181036000830152610f4181610f05565b9050919050565b7f496e76616c696420656e7469747920616464726573732e000000000000000000600082015250565b6000610f7e601783610b3b565b9150610f8982610f48565b602082019050919050565b60006020820190508181036000830152610fad81610f71565b9050919050565b7f4163636573732064656e6965642e20596f7520617265206e6f7420617574686f60008201527f72697a65642e0000000000000000000000000000000000000000000000000000602082015250565b6000611010602683610b3b565b915061101b82610fb4565b604082019050919050565b6000602082019050818103600083015261103f81611003565b9050919050565b7f4e487b7100000000000000000000000000000000000000000000000000000000600052602260045260246000fd5b6000600282049050600182168061108d57607f821691505b6020821081036110a05761109f611046565b5b50919050565b7f456e7469747920646f6573206e6f742068617665206163636573732e00000000600082015250565b60006110dc601c83610b3b565b91506110e7826110a6565b602082019050919050565b6000602082019050818103600083015261110b816110cf565b9050919050565b7f4163636573732064656e6965642e000000000000000000000000000000000000600082015250565b6000611148600e83610b3b565b915061115382611112565b602082019050919050565b600060208201905081810360008301526111778161113b565b9050919050565b60008190508160005260206000209050919050565b60006020601f8301049050919050565b600082821b905092915050565b6000600883026111e07fffffffffffffffffffffffffffffffffffffffffffffffffffffffffffffffff826111a3565b6111ea86836111a3565b95508019841693508086168417925050509392505050565b6000819050919050565b6000819050919050565b600061123161122c61122784611202565b61120c565b611202565b9050919050565b6000819050919050565b61124b83611216565b61125f61125782611238565b8484546111b0565b825550505050565b600090565b611274611267565b61127f818484611242565b505050565b5b818110156112a35761129860008261126c565b600181019050611285565b5050565b601f8211156112e8576112b98161117e565b6112c284611193565b810160208510156112d1578190505b6112e56112dd85611193565b830182611284565b50505b505050565b600082821c905092915050565b600061130b600019846008026112ed565b1980831691505092915050565b600061132483836112fa565b9150826002028217905092915050565b61133d82610b30565b67ffffffffffffffff81111561135657611355610d42565b5b6113608254611075565b61136b8282856112a7565b600060209050601f83116001811461139e576000841561138c578287015190505b6113968582611318565b8655506113fe565b601f1984166113ac8661117e565b60005b828110156113d4578489015182556001820191506020850194506020810190506113af565b868310156113f157848901516113ed601f8916826112fa565b8355505b6001600288020188555050505b50505050505056fea264697066735822122043d28b2bbc085df4adf57e884a5bdeaa833ecb8b25e521ea431f2c5a0bf3fbe664736f6c63430008120033",
  "immutableReferences": {},
  "source": "// SPDX-License-Identifier: MIT\r\npragma solidity ^0.8.0;\r\n\r\ncontract HealthDataSharing {\r\n\r\n    // Define a struct to store IPFS hash and access permissions\r\n    struct PatientData {\r\n        string ipfsHash;\r\n        address[] authorizedEntities;\r\n    }\r\n\r\n    // Mapping of patient address to their data on IPFS\r\n    mapping(address => PatientData) private patientData;\r\n\r\n    // Mapping to track entity authorization by patients\r\n    mapping(address => mapping(address => bool)) public accessPermissions;\r\n\r\n    // Events for tracking activities\r\n    event DataStored(address indexed patient, string ipfsHash);\r\n    event AccessGranted(address indexed patient, address indexed entity);\r\n    event AccessRevoked(address indexed patient, address indexed entity);\r\n\r\n    // Modifier to check that only the patient can modify their data or permissions\r\n    modifier onlyPatient() {\r\n        require(msg.sender == tx.origin, \"Only the patient can modify permissions.\");\r\n        _;\r\n    }\r\n\r\n    // Store data IPFS hash on-chain and set initial permissions\r\n    function storeData(string memory _ipfsHash) public onlyPatient {\r\n        PatientData storage data = patientData[msg.sender];\r\n        data.ipfsHash = _ipfsHash;\r\n\r\n        emit DataStored(msg.sender, _ipfsHash);\r\n    }\r\n\r\n    // Grant access permission to a healthcare provider or other entity\r\n    function grantAccess(address _entity) public onlyPatient {\r\n        require(_entity != address(0), \"Invalid entity address.\");\r\n        accessPermissions[msg.sender][_entity] = true;\r\n        patientData[msg.sender].authorizedEntities.push(_entity);\r\n\r\n        emit AccessGranted(msg.sender, _entity);\r\n    }\r\n\r\n    // Revoke access permission from a healthcare provider or other entity\r\n    function revokeAccess(address _entity) public onlyPatient {\r\n        require(accessPermissions[msg.sender][_entity], \"Entity does not have access.\");\r\n        accessPermissions[msg.sender][_entity] = false;\r\n\r\n        emit AccessRevoked(msg.sender, _entity);\r\n    }\r\n\r\n    // Retrieve IPFS hash if the caller is authorized\r\n    function retrieveData(address _patient) public view returns (string memory) {\r\n        require(accessPermissions[_patient][msg.sender], \"Access denied. You are not authorized.\");\r\n        \r\n        return patientData[_patient].ipfsHash;\r\n    }\r\n\r\n    // View list of authorized entities for a specific patient\r\n    function getAuthorizedEntities(address _patient) public view returns (address[] memory) {\r\n        require(msg.sender == _patient || accessPermissions[_patient][msg.sender], \"Access denied.\");\r\n        return patientData[_patient].authorizedEntities;\r\n    }\r\n}\r\n",
  "sourcePath": "C:\\Users\\asus\\OneDrive\\Documents\\HC blockchain\\truffle\\contracts\\HealthDataSharing.sol",
  "compiler": {
    "name": "solc",
    "version": "0.8.18+commit.87f61d96.Emscripten.clang"
  },
  "schemaVersion": "3.4.16",
  "updatedAt": "2024-11-27T07:41:57.135Z",
  "networkType": "ethereum",
  "devdoc": {
    "kind": "dev",
    "methods": {},
    "version": 1
  },
  "userdoc": {
    "kind": "user",
    "methods": {},
    "version": 1
  }
}